{
  "_format": "hh3-artifact-1",
  "contractName": "Bank",
  "sourceName": "contracts/Bank.sol",
  "abi": [
    {
      "anonymous": false,
      "inputs": [
        {
          "indexed": true,
          "internalType": "address",
          "name": "account",
          "type": "address"
        },
        {
          "indexed": false,
          "internalType": "uint256",
          "name": "amount",
          "type": "uint256"
        }
      ],
      "name": "etherDeposited",
      "type": "event"
    },
    {
      "anonymous": false,
      "inputs": [
        {
          "indexed": true,
          "internalType": "address",
          "name": "account",
          "type": "address"
        },
        {
          "indexed": false,
          "internalType": "uint256",
          "name": "amount",
          "type": "uint256"
        }
      ],
      "name": "etherWithdrawed",
      "type": "event"
    },
    {
      "inputs": [],
      "name": "deposit",
      "outputs": [],
      "stateMutability": "payable",
      "type": "function"
    },
    {
      "inputs": [],
      "name": "getBalanceOfUser",
      "outputs": [
        {
          "internalType": "uint256",
          "name": "",
          "type": "uint256"
        }
      ],
      "stateMutability": "view",
      "type": "function"
    },
    {
      "inputs": [
        {
          "internalType": "uint256",
          "name": "_amount",
          "type": "uint256"
        }
      ],
      "name": "withdraw",
      "outputs": [],
      "stateMutability": "nonpayable",
      "type": "function"
    }
  ],
  "bytecode": "0x6080604052348015600e575f5ffd5b5061030f8061001c5f395ff3fe608060405260043610610033575f3560e01c80632e1a7d4d1461003757806379982de414610058578063d0e30db014610085575b5f5ffd5b348015610042575f5ffd5b50610056610051366004610282565b61008d565b005b348015610063575f5ffd5b50335f9081526020819052604090205460405190815260200160405180910390f35b6100566101c7565b335f908152602081905260409020548111156100e35760405162461bcd60e51b815260206004820152601060248201526f4e6f7420656e6f7567682066756e647360801b60448201526064015b60405180910390fd5b335f90815260208190526040812080548392906101019084906102ad565b90915550506040515f90339083908381818185875af1925050503d805f8114610145576040519150601f19603f3d011682016040523d82523d5f602084013e61014a565b606091505b505090508061018e5760405162461bcd60e51b815260206004820152601060248201526f105b88195c9c9bdc881bd8d8dd5c995960821b60448201526064016100da565b60405182815233907f47ed555d8b6242a89fcdab94795dc91c98a0e46db88f4a2b2bda3371956fd0d09060200160405180910390a25050565b5f34116102165760405162461bcd60e51b815260206004820152601a60248201527f4e6f7420656e6f7567682066756e6473206465706f736974656400000000000060448201526064016100da565b335f90815260208190526040812080543492906102349084906102c6565b9091555050335f81815260208181526040918290204260019091015590513481527f4de483450f36dd8489373cf9166b2260f09ae72422d836e12fd9565cec1cb91e910160405180910390a2565b5f60208284031215610292575f5ffd5b5035919050565b634e487b7160e01b5f52601160045260245ffd5b818103818111156102c0576102c0610299565b92915050565b808201808211156102c0576102c061029956fea26469706673582212206797979b7fa2498160c76e6e1ce80c5493ef39f733f484baf8c0fe605733338964736f6c634300081c0033",
  "linkReferences": {},
  "deployedLinkReferences": {},
  "immutableReferences": {},
  "inputSourceName": "project/contracts/Bank.sol",
  "buildInfoId": "solc-0_8_28-a15c445484c162f09475ef8c339671df631c72c7"
}